{
  "_format": "hh-sol-artifact-1",
  "contractName": "PaymentContract",
  "sourceName": "contracts/PaymentContract.sol",
  "abi": [
    {
      "inputs": [],
      "stateMutability": "nonpayable",
      "type": "constructor"
    },
    {
      "anonymous": false,
      "inputs": [
        {
          "indexed": false,
          "internalType": "bool",
          "name": "paused",
          "type": "bool"
        }
      ],
      "name": "EmergencyPause",
      "type": "event"
    },
    {
      "anonymous": false,
      "inputs": [
        {
          "indexed": true,
          "internalType": "address",
          "name": "payer",
          "type": "address"
        },
        {
          "indexed": true,
          "internalType": "address",
          "name": "recipient",
          "type": "address"
        },
        {
          "indexed": false,
          "internalType": "uint256",
          "name": "amount",
          "type": "uint256"
        }
      ],
      "name": "PaymentProcessed",
      "type": "event"
    },
    {
      "inputs": [],
      "name": "MAX_TRANSACTIONS_PER_PERIOD",
      "outputs": [
        {
          "internalType": "uint256",
          "name": "",
          "type": "uint256"
        }
      ],
      "stateMutability": "view",
      "type": "function"
    },
    {
      "inputs": [],
      "name": "RATE_LIMIT_PERIOD",
      "outputs": [
        {
          "internalType": "uint256",
          "name": "",
          "type": "uint256"
        }
      ],
      "stateMutability": "view",
      "type": "function"
    },
    {
      "inputs": [
        {
          "internalType": "address[]",
          "name": "recipients",
          "type": "address[]"
        },
        {
          "internalType": "uint256[]",
          "name": "amounts",
          "type": "uint256[]"
        }
      ],
      "name": "batchPayment",
      "outputs": [],
      "stateMutability": "payable",
      "type": "function"
    },
    {
      "inputs": [
        {
          "internalType": "address",
          "name": "recipient",
          "type": "address"
        }
      ],
      "name": "createPayment",
      "outputs": [],
      "stateMutability": "payable",
      "type": "function"
    },
    {
      "inputs": [],
      "name": "owner",
      "outputs": [
        {
          "internalType": "address",
          "name": "",
          "type": "address"
        }
      ],
      "stateMutability": "view",
      "type": "function"
    },
    {
      "inputs": [],
      "name": "paused",
      "outputs": [
        {
          "internalType": "bool",
          "name": "",
          "type": "bool"
        }
      ],
      "stateMutability": "view",
      "type": "function"
    },
    {
      "inputs": [],
      "name": "togglePause",
      "outputs": [],
      "stateMutability": "nonpayable",
      "type": "function"
    },
    {
      "inputs": [
        {
          "internalType": "address",
          "name": "",
          "type": "address"
        }
      ],
      "name": "transactionLimits",
      "outputs": [
        {
          "internalType": "uint256",
          "name": "count",
          "type": "uint256"
        },
        {
          "internalType": "uint256",
          "name": "resetTime",
          "type": "uint256"
        }
      ],
      "stateMutability": "view",
      "type": "function"
    }
  ],
  "bytecode": "0x608060405234801561001057600080fd5b50336000806101000a81548173ffffffffffffffffffffffffffffffffffffffff021916908373ffffffffffffffffffffffffffffffffffffffff160217905550611368806100606000396000f3fe60806040526004361061007b5760003560e01c80638da5cb5b1161004e5780638da5cb5b14610130578063b7b188d11461015b578063c4ae316814610186578063e93512e21461019d5761007b565b806353b5e4b51461008057806358abfbdf1461009c5780635c975abb146100c75780637b97f7f7146100f2575b600080fd5b61009a60048036038101906100959190610bb4565b6101b9565b005b3480156100a857600080fd5b506100b16106a1565b6040516100be9190610c4e565b60405180910390f35b3480156100d357600080fd5b506100dc6106a6565b6040516100e99190610c84565b60405180910390f35b3480156100fe57600080fd5b5061011960048036038101906101149190610cfd565b6106b9565b604051610127929190610d2a565b60405180910390f35b34801561013c57600080fd5b506101456106dd565b6040516101529190610d62565b60405180910390f35b34801561016757600080fd5b50610170610701565b60405161017d9190610c4e565b60405180910390f35b34801561019257600080fd5b5061019b610707565b005b6101b760048036038101906101b29190610cfd565b610807565b005b600060149054906101000a900460ff1615610209576040517f08c379a000000000000000000000000000000000000000000000000000000000815260040161020090610dda565b60405180910390fd5b6000600160003373ffffffffffffffffffffffffffffffffffffffff1673ffffffffffffffffffffffffffffffffffffffff1681526020019081526020016000209050806001015442106102785760008160000181905550610e104261026f9190610e29565b81600101819055505b600a8160000154106102bf576040517f08c379a00000000000000000000000000000000000000000000000000000000081526004016102b690610ea9565b60405180910390fd5b8060000160008154809291906102d490610ec9565b9190505550828290508585905014610321576040517f08c379a000000000000000000000000000000000000000000000000000000000815260040161031890610f5d565b60405180910390fd5b60008585905011610367576040517f08c379a000000000000000000000000000000000000000000000000000000000815260040161035e90610fc9565b60405180910390fd5b6000805b848490508110156103b05784848281811061038957610388610fe9565b5b905060200201358261039b9190610e29565b915080806103a890610ec9565b91505061036b565b508034146103f3576040517f08c379a00000000000000000000000000000000000000000000000000000000081526004016103ea90611064565b60405180910390fd5b60005b8686905081101561069857600073ffffffffffffffffffffffffffffffffffffffff1687878381811061042c5761042b610fe9565b5b90506020020160208101906104419190610cfd565b73ffffffffffffffffffffffffffffffffffffffff1603610497576040517f08c379a000000000000000000000000000000000000000000000000000000000815260040161048e906110d0565b60405180910390fd5b60008585838181106104ac576104ab610fe9565b5b90506020020135116104f3576040517f08c379a00000000000000000000000000000000000000000000000000000000081526004016104ea9061113c565b60405180910390fd5b600087878381811061050857610507610fe9565b5b905060200201602081019061051d9190610cfd565b73ffffffffffffffffffffffffffffffffffffffff1686868481811061054657610545610fe9565b5b905060200201356040516105599061118d565b60006040518083038185875af1925050503d8060008114610596576040519150601f19603f3d011682016040523d82523d6000602084013e61059b565b606091505b50509050806105df576040517f08c379a00000000000000000000000000000000000000000000000000000000081526004016105d6906111ee565b60405180910390fd5b8787838181106105f2576105f1610fe9565b5b90506020020160208101906106079190610cfd565b73ffffffffffffffffffffffffffffffffffffffff163373ffffffffffffffffffffffffffffffffffffffff167f0538ab32a957d2b55d0ec70a4029e73fdf19f500832839b1d7bafcfbca2a563088888681811061066857610667610fe9565b5b9050602002013560405161067c9190610c4e565b60405180910390a350808061069090610ec9565b9150506103f6565b50505050505050565b600a81565b600060149054906101000a900460ff1681565b60016020528060005260406000206000915090508060000154908060010154905082565b60008054906101000a900473ffffffffffffffffffffffffffffffffffffffff1681565b610e1081565b60008054906101000a900473ffffffffffffffffffffffffffffffffffffffff1673ffffffffffffffffffffffffffffffffffffffff163373ffffffffffffffffffffffffffffffffffffffff1614610795576040517f08c379a000000000000000000000000000000000000000000000000000000000815260040161078c90611280565b60405180910390fd5b600060149054906101000a900460ff1615600060146101000a81548160ff0219169083151502179055507fb80d1ae5628c2af91424c54c87acfd15016be4bebeef0425b328238702f34831600060149054906101000a900460ff166040516107fd9190610c84565b60405180910390a1565b600060149054906101000a900460ff1615610857576040517f08c379a000000000000000000000000000000000000000000000000000000000815260040161084e90610dda565b60405180910390fd5b6000600160003373ffffffffffffffffffffffffffffffffffffffff1673ffffffffffffffffffffffffffffffffffffffff1681526020019081526020016000209050806001015442106108c65760008160000181905550610e10426108bd9190610e29565b81600101819055505b600a81600001541061090d576040517f08c379a000000000000000000000000000000000000000000000000000000000815260040161090490610ea9565b60405180910390fd5b80600001600081548092919061092290610ec9565b91905055506000341161096a576040517f08c379a000000000000000000000000000000000000000000000000000000000815260040161096190611312565b60405180910390fd5b600073ffffffffffffffffffffffffffffffffffffffff168273ffffffffffffffffffffffffffffffffffffffff16036109d9576040517f08c379a00000000000000000000000000000000000000000000000000000000081526004016109d0906110d0565b60405180910390fd5b60008273ffffffffffffffffffffffffffffffffffffffff16346040516109ff9061118d565b60006040518083038185875af1925050503d8060008114610a3c576040519150601f19603f3d011682016040523d82523d6000602084013e610a41565b606091505b5050905080610a85576040517f08c379a0000000000000000000000000000000000000000000000000000000008152600401610a7c906111ee565b60405180910390fd5b8273ffffffffffffffffffffffffffffffffffffffff163373ffffffffffffffffffffffffffffffffffffffff167f0538ab32a957d2b55d0ec70a4029e73fdf19f500832839b1d7bafcfbca2a563034604051610ae29190610c4e565b60405180910390a3505050565b600080fd5b600080fd5b600080fd5b600080fd5b600080fd5b60008083601f840112610b1e57610b1d610af9565b5b8235905067ffffffffffffffff811115610b3b57610b3a610afe565b5b602083019150836020820283011115610b5757610b56610b03565b5b9250929050565b60008083601f840112610b7457610b73610af9565b5b8235905067ffffffffffffffff811115610b9157610b90610afe565b5b602083019150836020820283011115610bad57610bac610b03565b5b9250929050565b60008060008060408587031215610bce57610bcd610aef565b5b600085013567ffffffffffffffff811115610bec57610beb610af4565b5b610bf887828801610b08565b9450945050602085013567ffffffffffffffff811115610c1b57610c1a610af4565b5b610c2787828801610b5e565b925092505092959194509250565b6000819050919050565b610c4881610c35565b82525050565b6000602082019050610c636000830184610c3f565b92915050565b60008115159050919050565b610c7e81610c69565b82525050565b6000602082019050610c996000830184610c75565b92915050565b600073ffffffffffffffffffffffffffffffffffffffff82169050919050565b6000610cca82610c9f565b9050919050565b610cda81610cbf565b8114610ce557600080fd5b50565b600081359050610cf781610cd1565b92915050565b600060208284031215610d1357610d12610aef565b5b6000610d2184828501610ce8565b91505092915050565b6000604082019050610d3f6000830185610c3f565b610d4c6020830184610c3f565b9392505050565b610d5c81610cbf565b82525050565b6000602082019050610d776000830184610d53565b92915050565b600082825260208201905092915050565b7f436f6e7472616374206973207061757365640000000000000000000000000000600082015250565b6000610dc4601283610d7d565b9150610dcf82610d8e565b602082019050919050565b60006020820190508181036000830152610df381610db7565b9050919050565b7f4e487b7100000000000000000000000000000000000000000000000000000000600052601160045260246000fd5b6000610e3482610c35565b9150610e3f83610c35565b9250828201905080821115610e5757610e56610dfa565b5b92915050565b7f52617465206c696d697420657863656564656400000000000000000000000000600082015250565b6000610e93601383610d7d565b9150610e9e82610e5d565b602082019050919050565b60006020820190508181036000830152610ec281610e86565b9050919050565b6000610ed482610c35565b91507fffffffffffffffffffffffffffffffffffffffffffffffffffffffffffffffff8203610f0657610f05610dfa565b5b600182019050919050565b7f417272617973206c656e677468206d69736d6174636800000000000000000000600082015250565b6000610f47601683610d7d565b9150610f5282610f11565b602082019050919050565b60006020820190508181036000830152610f7681610f3a565b9050919050565b7f456d70747920726563697069656e747320617272617900000000000000000000600082015250565b6000610fb3601683610d7d565b9150610fbe82610f7d565b602082019050919050565b60006020820190508181036000830152610fe281610fa6565b9050919050565b7f4e487b7100000000000000000000000000000000000000000000000000000000600052603260045260246000fd5b7f496e636f727265637420746f74616c20616d6f756e7400000000000000000000600082015250565b600061104e601683610d7d565b915061105982611018565b602082019050919050565b6000602082019050818103600083015261107d81611041565b9050919050565b7f496e76616c696420726563697069656e74206164647265737300000000000000600082015250565b60006110ba601983610d7d565b91506110c582611084565b602082019050919050565b600060208201905081810360008301526110e9816110ad565b9050919050565b7f416d6f756e74206d7573742062652067726561746572207468616e2030000000600082015250565b6000611126601d83610d7d565b9150611131826110f0565b602082019050919050565b6000602082019050818103600083015261115581611119565b9050919050565b600081905092915050565b50565b600061117760008361115c565b915061118282611167565b600082019050919050565b60006111988261116a565b9150819050919050565b7f5061796d656e74206661696c6564000000000000000000000000000000000000600082015250565b60006111d8600e83610d7d565b91506111e3826111a2565b602082019050919050565b60006020820190508181036000830152611207816111cb565b9050919050565b7f4f6e6c79206f776e65722063616e2063616c6c20746869732066756e6374696f60008201527f6e00000000000000000000000000000000000000000000000000000000000000602082015250565b600061126a602183610d7d565b91506112758261120e565b604082019050919050565b600060208201905081810360008301526112998161125d565b9050919050565b7f5061796d656e7420616d6f756e74206d7573742062652067726561746572207460008201527f68616e2030000000000000000000000000000000000000000000000000000000602082015250565b60006112fc602583610d7d565b9150611307826112a0565b604082019050919050565b6000602082019050818103600083015261132b816112ef565b905091905056fea2646970667358221220aedb754c386b0f49caf2eed4198de5cdeb6b889c964985e2c09a4720665e4d4c64736f6c63430008130033",
  "linkReferences": {},
  "deployedLinkReferences": {}
}